:100000000C94AB050C94F4050C94F4050C94F405D5
:100010000C94F4050C94F4050C94F4050C94F4057C
:100020000C94F4050C94F4050C9446270C941E28AB
:100030000C947F210C94F4050C94F4050C94F405B5
:100040000C94F4050C94F4050C94F4050C94F4054C
:100050000C94F4050C94D6210C94F4050C94F4053E
:100060000C94F4050C94F4050C94F4050C94F4052C
:100070000C94F4050C94F4050C94F4050C94F4051C
:100080000C94F4050C94F4050C94F4050C94F4050C
:100090000C94F4050C94F405260227025400550034
:1000A0005F006000610056005C005D005E0057006C
:1000B00059005A005B000000000062006300580015
:1000C00044454255473A2064697361626C65642E09
:1000D0000A0044454255473A20656E61626C65648A
:1000E0002E0A000A0025303862003A2000253032FE
:1000F00058000A722F632030313233343536370AD4
:10010000006D6B5F776865656C5F74696D655F74C2
:100110006F5F6D6178203D2025640A006D6B5F770D
:100120006865656C5F6D61785F7370656564203DBF
:100130002025640A006D6B5F74696D655F746F5F85
:100140006D6178203D2025640A006D6B5F6D6178DC
:100150005F7370656564203D2025640A006D6B5FE8
:10016000696E74657276616C203D2025640A006DAD
:100170006B5F64656C6179203D2025640A006D6BBE
:100180005F776865656C5F74696D655F746F5F6DDF
:100190006178203D2025640A006D6B5F7768656596
:1001A0006C5F6D61785F7370656564203D202564C8
:1001B0000A006D6B5F74696D655F746F5F6D617868
:1001C000203D2025640A006D6B5F6D61785F737060
:1001D000656564203D2025640A006D6B5F696E745F
:1001E000657276616C203D2025640A006D6B5F644A
:1001F000656C6179203D2025640A000A00257500A0
:10020000363A20776865656C5F74696D655F746FF9
:100210005F6D61783A20000A00257500353A207735
:100220006865656C5F6D61785F73706565643A20C1
:10023000000A00257500343A2074696D655F746F9B
:100240005F6D61783A20000A00257500333A206D11
:1002500061785F73706565643A20000A0025750057
:10026000323A20696E74657276616C286D73293A32
:1002700020000A00257500313A2064656C617928F8
:100280002A31306D73293A20000A092D2056616CFD
:10029000756573202D0A004D3E004D25643E2000FB
:1002A0003F007365742064656661756C740A004371
:1002B0003E200077686572652064656C74613A2041
:1002C000637572736F723D25642C20776865656C69
:1002D0003D25640A53656520687474703A2F2F6554
:1002E0006E2E77696B6970656469612E6F72672F16
:1002F00077696B692F4D6F7573655F6B6579730AED
:10030000000A092D204D6F7573656B6579202D0AE4
:100310004553432F713A09717569740A313A09647A
:10032000656C6179282A31306D73290A323A09697E
:100330006E74657276616C286D73290A333A096DA3
:1003400061785F73706565640A343A0974696D6534
:100350005F746F5F6D61780A353A09776865656C1F
:100360005F6D61785F73706565640A363A09776816
:1003700065656C5F74696D655F746F5F6D61780A48
:100380000A703A097072696E742076616C756573D3
:100390000A643A097365742064656661756C7473E8
:1003A0000A75703A092B310A646F776E3A092D315C
:1003B0000A706775703A092B31300A7067646F777D
:1003C0006E3A092D31300A0A7370656564203D204C
:1003D00064656C7461202A206D61785F7370656557
:1003E00064202A2028726570656174202F2074694A
:1003F0006D655F746F5F6D6178290A003F004D3E47
:100400002000433E20004C25640A0074696D65722B
:100410005F72656164333228293A202530346C5884
:100420000A006B6579626F6172645F69646C653A3A
:100430002025580A006B6579626F6172645F707283
:100440006F746F636F6C3A2025580A00686F73747D
:100450005F6B6579626F6172645F6C656473282994
:100460003A2025580A000A092D20537461747573C7
:10047000202D0A004743433A20382E342E302041A5
:1004800056522D4C4942433A20322E302E302041D4
:1004900056525F415243483A2061767235310A0024
:1004A0004F5054494F4E533A204C554641204D4FE2
:1004B0005553454B45592045585452414B455920B9
:1004C000434F4E534F4C4520434F4D4D414E4420DA
:1004D000383139320A004255494C443A2020284DDF
:1004E00061792031322032303231290A00564944B4
:1004F0003A2030784645454428254D414E554641E1
:100500004354555245522529205049443A203078C9
:1005100030303030285465656E73794E756D50619A
:100520006429205645523A203078303030310A0064
:100530000A092D2056657273696F6E202D0A000A14
:10054000092D20436F6E736F6C65202D0A45534350
:100550002F713A09717569740A6D3A096D6F757377
:10056000656B65790A000A092D204D616769632072
:100570002D0A443A094465627567204D65737361BD
:10058000676520546F67676C650A583A094D617456
:10059000726978204465627567204D6F64652054E8
:1005A0006F67676C65202D2053686F77206B6579C6
:1005B0007072657373657320696E206D6174726902
:1005C0007820677269640A4B3A094B6579626F61FA
:1005D000726420446562756720546F67676C65209C
:1005E0002D2053686F77206B657970726573732067
:1005F0007265706F72740A4D3A09446562756720BE
:100600004D6F75736520546F67676C650A563A09BC
:1006100056657273696F6E0A533A09537461747543
:10062000730A433A09416374697661746520436FC4
:100630006E736F6C65204D6F64650A46312D4631CF
:10064000303A0953776974636820746F204C61797C
:10065000657220302D392028463130203D204C3025
:10066000290A302D393A0953776974636820746F09
:10067000204C6179657220302D390A475241564528
:100680003A0953776974636820746F204C61796507
:100690007220302028616C7465726E617465290A5D
:1006A000423A094A756D7020746F20426F6F746C06
:1006B0006F616465720A4553433A094A756D70204B
:1006C000746F20426F6F746C6F6164657220286173
:1006D0006C7465726E617465290A453A09507269D5
:1006E0006E7420454550524F4D2053657474696EA9
:1006F00067730A4253504143453A09436C6561723E
:1007000020454550524F4D0A000A002575002E6EB7
:100710006B726F3A20000A002575002E73776170A6
:100720005F6261636B736C6173685F6261636B735B
:10073000706163653A20000A002575002E737761A9
:10074000705F67726176655F6573633A20000A00C7
:100750002575002E6E6F5F6775693A20000A0025C7
:1007600075002E737761705F72616C745F7267756C
:10077000693A20000A002575002E737761705F6C5E
:10078000616C745F6C6775693A20000A002575001A
:100790002E737761705F7263746C5F726775693A0C
:1007A00020000A002575002E737761705F6C6374FA
:1007B0006C5F6C6775693A20000A002575002E632E
:1007C0006170736C6F636B5F746F5F636F6E747275
:1007D0006F6C3A20000A002575002E737761705FF8
:1007E000636F6E74726F6C5F636170736C6F636B59
:1007F0003A20000A0025303258006B65796D61702F
:100800005F636F6E6669672E7261773A20000A0037
:100810002575002E6D6F7573653A20000A002575E9
:10082000002E6B6579626F6172643A20000A0025C0
:1008300075002E6D61747269783A20000A00257582
:10084000002E656E61626C653A20000A0025303228
:10085000580064656275675F636F6E6669672E72C4
:1008600061773A20000A0025750064656661756C41
:10087000745F6C617965723A20003F000A6D6F7594
:1008800073653A206F66660A000A6D6F7573653A84
:10089000206F6E0A000A6B6579626F6172643A209C
:1008A0006F66660A000A6B6579626F6172643A204E
:1008B0006F6E0A000A6D61747269783A206F66661D
:1008C0000A000A6D61747269783A206F6E0A000A34
:1008D00064656275673A206F66660A000A6465623D
:1008E00075673A206F6E0A000A0A4A756D70696E64
:1008F0006720746F20626F6F746C6F616465722E15
:100900002E2E2000433E2000436C656172696E67A5
:1009100020454550524F4D0A006565636F6E66690C
:10092000673A0A00290A002575002F002575005D29
:100930002800256400200025640020002564002094
:10094000002564007C0025303258006D6F7573659A
:100950006B6579205B62746E7C78207920762068E4
:100960005D287265702F61636C293A205B000A0074
:100970002530325820006B6579626F6172645F7256
:1009800065706F72743A20000A0025303258006B8F
:100990006579626F6172645F7365745F6C65643AF8
:1009A00020005B735D004B6579626F617264207338
:1009B000746172742E0A005B575D005B535D005BCF
:1009C000525D005B445D005B435D001A03540065AB
:1009D0000065006E00730079004E0075006D0050D8
:1009E000006100640000001E0325004D0041004E20
:1009F0000055004600410043005400550052004598
:100A0000005200250000000403090409025B0003F2
:100A10000100A0FA090400000103010100092111ED
:100A20000100012240000705810308000A090401B2
:100A3000000103000000092111010001227B0007D1
:100A400005820320000A09040200020300000009D5
:100A50002111010001222200070583032000010764
:100A60000503032000011201100100000008EDFE43
:100A700000000100010200010631FF0974A1010913
:100A800075150026FF00952075088102097615006E
:100A900026FF00952075089102C005010902A101F9
:100AA00085020901A1000509190129081500250180
:100AB0009508750181020501093009311581257FED
:100AC00095027508810609381581257F95017508FD
:100AD0008106050C0A38021581257F95017508816C
:100AE00006C0C005010980A101850319012AB700CC
:100AF000150126B700950175108100C0050C09018C
:100B0000A101850419012AA002150126A002950160
:100B100075108100C005010906A101050719E0292A
:100B2000E715002501950875018102950175088179
:100B3000010507190029FF150026FF009506750815
:100B40008100050819012905950575019102950196
:100B500075039101C00011241FBECFEFD0E2DEBFAC
:100B6000CDBF04B603FE27C080914F029091500282
:100B7000A0915102B09152028730904BA740B04BE8
:100B8000D1F410924F021092500210925102109222
:100B9000520214BE84B7877F84BF0FB6F894A8951D
:100BA00080916000886180936000109260000FBEA9
:100BB000E0E0F0EF099511E0A0E0B1E0E8EFF4E546
:100BC00000E00BBF02C007900D92AA39B107D9F718
:100BD00022E0AAE9B1E001C01D92AF34B207E1F70B
:100BE0000E9478240C94522A0C940000FF93EF93F7
:100BF000E0919A01F0919B01309709F00995EF91EE
:100C0000FF910895FC018591803011F0EFDFFBCF5B
:100C10000895FF27E0E230E247FF0CC0419597FFBF
:100C200009C0EDE26095709580959095611D711DEC
:100C3000811D911D27FF02C0219530E350E2AA27B4
:100C4000660F771F881F991FAA1FA41710F0A41BF7
:100C500063955A95A9F7AA3008F0A95FA05DAF93F4
:100C6000F395611571058105910541F7ED3211F498
:100C7000EF93F395F21718F43F93F395FBCF8F9111
:100C8000B5DFFA95E1F70895E991F9918591803002
:100C900021F0853219F0AADFF9CF089520E0E89419
:100CA00055915532C1F3503311F4689455915A332C
:100CB00048F4505390F3220F022E220F220F200DE2
:100CC000250FF4CF0EF4219589919991533619F39C
:100CD000533729F1533559F1BC0188279927E894F6
:100CE0005C3621F48991999168945591543639F480
:100CF00046EF7EF077FF0DC08FEF9FEF0AC05537AC
:100D00004AE039F0583540E121F0523642E009F02E
:100D10000895FF93EF937DDFEF91FF91B7CFFF939E
:100D2000EF93FC0181918030B9F360DFFBCFFF933B
:100D3000EF9368DFF1CFDF93CF93CDB7DEB7259682
:100D4000A3DFCF91DF91089581E0089581E00895B8
:100D50000C94A60608950C94AA061F93CF93DF93D4
:100D600000D000D00F92CDB7DEB749835A836B8392
:100D70003091C60189819A8131111DC06623B9F075
:100D80002223A9F00E94E51E182F682F89819A81DD
:100D90000E94921E69817A81812F0F900F900F908F
:100DA0000F900F90DF91CF911F910C948D070E94AF
:100DB000BE1E182FEFCF0E94E51E69817A81EDCF0C
:100DC000FC01262F408151816281738184810C94C2
:100DD000AD06CF93DF93EC0160E00E94E006BE0118
:100DE000DF91CF910C94AB060E9425220E942F2008
:100DF000811102C00E94D3200C9499090C949C0983
:100E000008950E94FC190E9400072FEF84E39CE0E4
:100E1000215080409040E1F700C000000C94FA217E
:100E20000F931F93CF93DF93EC0161E00E94E006E4
:100E30008C01BE010E94A806882311F1BE01C801E1
:100E40000E9473138823E1F0BE01C8010E94C513FC
:100E50008823B1F0BE01C8010E94E814882381F004
:100E60008A81882341F101308CE5180779F00F3D24
:100E70008CE51807E9F001151C45E9F40E9401070B
:100E800080E0DF91CF911F910F91089590912302FF
:100E9000892F8E7F90FF81608093230280FF05C0A1
:100EA00082ED90E00E940206EBCF80EC90E0FACF5A
:100EB0000E94D320E5CFCE01DF91CF911F910F91FA
:100EC0000C94A406829590E09C01220F331F220F00
:100ED000331F2C7C95958795959587958373282B43
:100EE00030E0C901880F991F8A7A359527952575B5
:100EF000822B089508950C947A0781E008950C944C
:100F00007D07CF93C82F0E947B078C2FCF910C9425
:100F10007F0790E080E008950895E72FF0E095E0E6
:100F2000899FE00DF11D1124EE0FFF1FEE0FFF1F33
:100F3000E60FF11DEE0FFF1FE856FF4F85919491CC
:100F40000895FC01EE0FFF1FED51FF4F8591949125
:100F50000895CF93DF930E948D070E94BE08EC0195
:100F6000811520E5920708F042C0811530E493070F
:100F700008F0BDC0883E910528F5803E910508F037
:100F80009DC0883A910588F4853A910508F08FC094
:100F90008130910509F492C0009709F48FC004973D
:100FA00008F08CC0D0E0C0E089C08F3B910508F408
:100FB00089C0805C9109C03CD105A0F30E94A107C3
:100FC000EC017CC08115904250F4C11581E0D80736
:100FD00008F074C0CD3ED10528F3D0656FC0C115AF
:100FE00090E3D90708F079C0CE019F70E7CF811553
:100FF00025E5920758F5811534E5930708F0A6C05A
:10100000811542E5940750F4C11581E5D80708F42D
:1010100071C0DC2FCC27C16FD06A50C0982F969535
:1010200096959E0123703327C115D34508F07FC0E4
:10103000C1E0D0E002C0CC0FDD1F2A95E2F720E22C
:10104000929FC0011124C82BD92B6FC0C11589E50F
:10105000D807A8F4C11598E5D90708F07CC0C115D8
:1010600026E5D20708F09ECF8C2F0E945509C82F85
:10107000D0E0DC2FCC27CC27DF71D0621FC0C11598
:101080003AE5D30708F46CC0CE0190568115904222
:1010900008F088CF8D2F8F710E94550990E0982F0E
:1010A000882788279F719C012C2BE901E6CFC55A20
:1010B000D0E0CD5BDE4FC881D0E0D064CE01DF91BF
:1010C000CF910895C85AD0E0CC0FDD1FCB5EDE4F24
:1010D0000990D881C02DD464F1CFCE019927D3FFD8
:1010E00003C0EC01D86CEACFEC01D06CE7CFDF7025
:1010F000D06AE4CFCE01E4E096958795EA95E1F7D2
:1011000083702C2F26952695237090E2299F9001BD
:101110001124382B8C2F8370C1E0D0E002C0CC0F9B
:10112000DD1F8A95E2F7C22BD32BDC68C7CFC1E065
:10113000D0E002C0CC0FDD1F2A95E2F730E2939F8A
:10114000C0011124C82BD92BDA68B8CFD82FCC27EF
:10115000C46FD06AB3CFDC2FCC27C06FD06AAECFBC
:101160008C2F8F700E94550934E0D695C7953A951B
:10117000E1F7CF709C2FEC01D069A0CF82389105A8
:10118000B1F1B0F48133910509F475C048F48932A6
:10119000910509F469C08A32910509F473C0089574
:1011A0008533910509F459C08933910501F10895FA
:1011B000833E9105A9F138F4803E9105F9F0823E15
:1011C000910549F10895863E9105A9F1873E910563
:1011D000C9F1843E910519F52091410221FF1FC0FC
:1011E0008091400284FD14C087EE90E00895209124
:1011F00040022370A1F080EE90E00895209140021B
:1012000020FD47C03091410230FF09C024FF44C097
:1012100090E080E004C02091400222FDF7CF0895C5
:101220002091400222FD3BC03091410230FDE3CFCE
:1012300024FFF5CFEDCF2091400223FFF0CF24FD16
:10124000E7CFD2CF2091400223FD2CC03091410244
:1012500031FFEECF84EE90E008952091400225FF0B
:10126000DECF89E290E008952091400225FFD7CF9C
:1012700085E390E008952091400226FFD0CF8AE2D6
:1012800090E008952091400226FFC9CF81E390E0CD
:10129000089589E390E0089583EE90E0089582EE4A
:1012A00090E0089586EE90E008959091400292FFBC
:1012B00006C0282F28712830F9F4877F846093FFB7
:1012C00006C0282F28712831F1F4877E846120918F
:1012D000410220FF06C0382F38713830D9F4877F9B
:1012E000816021FF06C0282F28712831D1F4877E24
:1012F000816194FD877E0895282F24712430F9F6AA
:101300008B7F8860DCCF282F2471243101F78B7EFE
:101310008861DDCF382F3171313019F78E7F8860C9
:10132000E0CF282F2171213121F78E7E8861E1CF16
:1013300008950C94980908950C949B09E82FF0E007
:10134000E95CFD4F80810895CF92DF92EF92FF928A
:101350000F931F93CF93DF9382EF90E00E940206DA
:1013600087E3E82E82E0F82ED0E0C0E09DEEC92EA3
:1013700090E0D92E05EE10E0DF93CF93DF92CF926D
:101380000E949B068AEE90E00E940206F70181917E
:101390007F010E9462071F928F931F930F930E94F9
:1013A0009B0683EE90E00E94020621968DB79EB7C1
:1013B00008960FB6F8949EBF0FBE8DBFC530D105FD
:1013C000D9F6DF91CF911F910F91FF90EF90DF90B1
:1013D000CF90089580EA8A95F1F7089500C00895A6
:1013E0000C94EA09F894E82FE295EF70F0E031A14F
:1013F000282F2F7081E090E001C0880F2A95EAF72E
:10140000982F9095932391A392A1892B82A37894EE
:10141000089580E90E94F20981E90E94F20982E9B7
:101420000E94F20983E90E94F20984E90E94F2090C
:1014300080E60E94F20981E60E94F20982E60E949B
:10144000F20983E60E94F209A2E3B2E01C92E7E30C
:10145000F2E0108211961C921197118212961C9242
:101460001297128213961C921397138214961C9251
:10147000148285E00E94B90A0C94F406BF92CF92C0
:10148000DF92EF92FF920F931F93CF93DF930AE4C3
:1014900011E0C2E3D2E0C12CD12CEE24E394F12C74
:1014A000F80181918F01F894E82FE295EF70F0E058
:1014B00021A18F70A70102C0440F551F8A95E2F742
:1014C000CA01922F982B91A392A18095892382A380
:1014D00078940E94EE09E6E4F1E030E020E0B12CDF
:1014E0004191A42FA295AF70B0E090968C9190E0BE
:1014F0004F7002C0959587954A95E2F780FD35C0FB
:101500008E2D022E01C0880F0A94EAF7B82A2F5FA9
:101510003F4F2430310521F7F801319780810E9437
:10152000F20954E0C5120E94F0098881B816F9F05A
:10153000B88281E0D82AC394219685E0C812B0CF42
:101540002D2D45E067E372E082E392E00E94BA0A43
:101550000E94FE068D2DDF91CF911F910F91FF907C
:10156000EF90DF90CF90BF90089580E0CFCF80E0E4
:10157000E1CF0895FF920F931F93CF93DF93F82E3F
:10158000092F162FD72FC42F222349F081E08093F3
:101590009E010E94AF2190939D0180939C018091B8
:1015A0009E018823A1F080919C0190919D010E9451
:1015B000C721069760F0EF2DF02FA12FBD2FCE0F82
:1015C000DF2FD11DEC17FD0741F410929E01DF9132
:1015D000CF911F910F91FF90089581918D93F2CF3C
:1015E00081E093E00E9402061F9281E08F931F9298
:1015F00085E08F9383EB92E09F938F930E949B06ED
:101600000F900F900F900F900F900F9008958330D0
:1016100009F445C028F4813061F0823049F1089521
:10162000853009F46AC008F451C0863009F47CC0E2
:10163000089580910701482F460F5527551F4F3FAA
:10164000510594F4680F60930701809107011F9280
:101650008F938CEE91E09F938F930E949B060F9047
:101660000F900F900F9008958FEF80930701EDCFAB
:1016700080910601482F460F5527551F4F3F5105B2
:1016800054F4680F60930601809106011F928F93B6
:101690008AED91E0E0CF8FEF80930601F5CF809146
:1016A0000501482F460F5527551F4F3F510554F44C
:1016B000680F60930501809105011F928F9387EC5D
:1016C00091E0C9CF8FEF80930501F5CF80910401A0
:1016D000482F460F5527551F4F3F510554F4680FAB
:1016E00060930401809104011F928F9382EB91E03B
:1016F000B2CF8FEF80930401F5CF80910101482F85
:10170000460F5527551F4F3F510554F4680F6093FE
:101710000101809101011F928F9389E991E09BCF94
:101720008FEF80930101F5CF80910001482F460F84
:101730005527551F4F3F510554F4680F6093000122
:10174000809100011F928F938EE791E084CF8FEFFD
:1017500080930001F5CF8330C9F128F4813061F026
:10176000823019F10895853009F452C008F43FC061
:10177000863009F45EC0089580910701681790F4DF
:10178000861B80930701809107011F928F938FE63C
:1017900091E09F938F930E949B060F900F900F9064
:1017A0000F90089510920701EECF809106016817FF
:1017B00050F4861B80930601809106011F928F933F
:1017C0008DE591E0E6CF10920601F6CF80910501FC
:1017D000681750F4861B80930501809105011F92C4
:1017E0008F938AE491E0D5CF10920501F6CF8091D6
:1017F0000401681750F4861B809304018091040152
:101800001F928F9385E391E0C4CF10920401F6CF2D
:1018100080910101681750F4861B8093010180912B
:1018200001011F928F938CE191E0B3CF10920101DF
:10183000F6CF80910001681750F4861B8093000159
:10184000809100011F928F9381E091E0A2CF1092CE
:101850000001F6CFCF93C82F1F928F9386E094E0BC
:101860009F938F930E949B0661E070E080E090E080
:1018700004C0660F771F881F991FCA95D2F70E9470
:10188000941D0F900F900F900F90CF910C94FC1916
:10189000CF93DF938B3109F4FAC108F09CC18B30F0
:1018A00009F4B8C108F06AC1863009F4C6C148F429
:1018B000853009F49EC18AE798E00E94020680E024
:1018C000CCC1873009F4CCC18830A9F789E199E00F
:1018D0000E9402068AE698E00E9402060E943E20CC
:1018E0001F928F9387E698E09F938F930E949B06A9
:1018F00085E698E00E9402060E943A20C82F82E501
:1019000098E00E9402061F92CF938DE498E09F9387
:101910008F930E949B068BE498E00E94020681E46C
:1019200098E00E9402068C2F81701F928F938EE3A5
:1019300098E09F938F930E949B068CE398E00E940F
:10194000020682E398E00E940206C1FB882780F924
:101950001F928F938FE298E09F938F930E949B0634
:101960008DE298E00E94020681E298E00E94020661
:10197000C2FB882780F91F928F938EE198E09F9396
:101980008F930E949B068CE198E00E94020683E1FF
:1019900098E00E940206C3FBCC27C0F91F92CF93A8
:1019A00080E198E09F938F930E949B068EE098E0E1
:1019B0000E9402060E944220EC018AEF97E00E94FA
:1019C0000206DF93CF9385EF97E09F938F930E945A
:1019D0009B0683EF97E00E9402068AED97E00E9443
:1019E00002068C2F81701F928F9387ED97E09F9353
:1019F0008F930E949B068DB79EB780960FB6F89482
:101A00009EBF0FBE8DBF85ED97E00E9402068EEB54
:101A100097E00E940206C1FB882780F91F928F93EE
:101A20008BEB97E09F938F930E949B0689EB97E047
:101A30000E94020687EA97E00E9402068D2F8170BD
:101A40001F928F9384EA97E09F938F930E949B0647
:101A500082EA97E00E94020680E997E00E9402066F
:101A6000D695D1701F92DF938DE897E09F938F9367
:101A70000E949B068BE897E00E94020689E797E0A8
:101A80000E940206C2FB882780F91F928F9386E787
:101A900097E09F938F930E949B0684E797E00E94B4
:101AA000020682E697E00E940206C3FB882780F9BF
:101AB0001F928F938FE597E09F938F930E949B06D1
:101AC0008DE597E00E94020683E597E00E940206FA
:101AD000C4FB882780F91F928F9380E597E09F933E
:101AE0008F930E949B068EE497E00E9402068CE38F
:101AF00097E00E940206C5FB882780F91F928F930A
:101B000089E397E09F938F930E949B0687E397E07A
:101B10000E9402068BE197E00E940206C6FB88271E
:101B200080F91F928F9388E197E09F938F930E9493
:101B30009B068DB79EB780960FB6F8949EBF0FBEDA
:101B40008DBF86E197E00E9402068EE097E00E943A
:101B50000206C7FBCC27C0F91F92CF938BE097E01A
:101B60009F938F930E949B0689E097E00E94020654
:101B70000F900F900F900F9081E06FC0803109F4AB
:101B80009EC080F48E3009F096CE90912302892F6A
:101B90008B7F92FF84608093230282FF8DC085EA51
:101BA00098E081C0863109F49AC0893109F083CE6A
:101BB00080E395E00E9402068DEE94E00E9402060A
:101BC00086ED94E00E94020680EA94E00E940206FC
:101BD00084E794E021C08A3249F190F4873211F110
:101BE00028F48E3108F467CE8D511DC0893209F07A
:101BF00062CE88EE98E00E9402060E940107BCCFE8
:101C0000833468F48A3308F0A1C0853359F08833EF
:101C100009F051CE86E695E00E940206ADCF8334EE
:101C200009F049CE80E00E942A0CA6CF88E099E016
:101C30000E9402060E94D3209FCF80912302807FC2
:101C4000809323028FE395E00E94020684E099E0EE
:101C50000E94020681E08093A001DF91CF91089558
:101C600090912302892F8E7F90FF816080932302C1
:101C700080FF03C08CED98E0CFCF8FEC98E00E94FE
:101C8000020680912302817F8093230275CF909179
:101C90002302892F8D7F91FF82608093230281FF31
:101CA00008C082EC98E00E940206809123028160C5
:101CB000EBCF84EB98E0B0CF85E998E0ADCF909181
:101CC0002302892F877F93FF88608093230283FFFD
:101CD00003C089E898E0E7CF8CE798E09DCF86E6DF
:101CE00094E00E9402060E9417151F928F938CE4C5
:101CF00094E09F938F930E949B06809114011F9202
:101D00008F9385E394E09F938F930E949B0680912D
:101D100031021F928F9382E294E09F938F930E94EF
:101D20009B060E94BB219F938F937F936F938BE0C1
:101D300094E09F938F930E949B068DB79EB7429627
:101D40000FB6F8949EBF0FBE8DBF16CF89536BCFD1
:101D500080E008950C94A80E8E518A3030F4E82F5C
:101D6000F0E0E15BFE4F8081089580E00895CF931D
:101D7000C82F8091A0018130C1F0882339F08230D2
:101D800009F447C01092A00180E00DC00E947A1FA4
:101D90008232D1F78C2F0E94A80E81111BC08C2F8C
:101DA0000E94480C8170CF9108950E947A1F823260
:101DB00089F38C2F0E94AA0E81111BC0C431D9F067
:101DC00060F4CB3071F0C031D1F08CEF93E00E9421
:101DD000020613C081E090E0E5CFC93261F0C8335C
:101DE000A1F78FE395E00E94020682E094E00E9452
:101DF000020681E0D7CF1092A00180E0D3CF0E94ED
:101E0000F00A8EEF93E00E94020682E08093A00128
:101E1000F0CFC432C8F4CE3108F0BEC0CB30E1F010
:101E200040F4C73009F4CCC080EA92E00E94020678
:101E300026C0C331C1F1C431B9F780919F01882315
:101E400051F110929F010AC0CB3409F4B7C0C8F415
:101E5000C93299F3C83341F70E94F00A80919F017B
:101E6000882309F4C4C01F928F938AE992E09F935C
:101E70008F930E949B060F900F900F900F9081E020
:101E800092CFC13509F494C0C23509F48BC0CE3469
:101E900059F66AE08EC08FEA92E00E94020681E065
:101EA0008093A00180CF89E892E00E94020687E734
:101EB00092E00E940206809107011F928F9384E7AF
:101EC00092E09F938F930E949B0682E792E00E948C
:101ED000020680E692E00E940206809106011F92AF
:101EE0008F938DE592E09F938F930E949B068BE5E5
:101EF00092E00E9402068CE492E00E940206809129
:101F000005011F928F9389E492E09F938F930E9423
:101F10009B0687E492E00E94020686E392E00E941C
:101F20000206809104011F928F9383E392E09F93B6
:101F30008F930E949B0681E392E00E9402068CE14F
:101F400092E00E940206809101011F928F9389E125
:101F500092E09F938F930E949B0687E192E00E94FC
:101F6000020680E092E00E940206809100011F922A
:101F70008F938DEF91E09F938F930E949B068BEF41
:101F800091E00E9402068DB79EB748960FB6F8946E
:101F90009EBF0FBE8DBF62CF8C2F0E94AC0E809370
:101FA0009F015CCF61E080919F010E94070B56CF9B
:101FB00061E080919F010E94AB0B50CF6AE0F3CFAC
:101FC0008EE18093070182E3809306018AE080938B
:101FD000050184E18093040188E08093010188E297
:101FE0008093000182EA92E00E94020637CF87E9DF
:101FF00092E01CCF8091A70180FF12C06091050183
:1020000085E0689FB0011124759567957595679572
:1020100060387105A8F561157105A1F1862F089545
:1020200081FF09C06091050185E0689FB00111241E
:1020300075956795EDCF6091050182FD0AC080918D
:10204000A6018823D1F090910401609105018917C0
:1020500028F085E0689FB0011124DACF869FB00197
:10206000112485E0869F9001879F300D1124692FF0
:1020700070E0C9010E94DF29CBCF65E070E0CECFD0
:102080008FE7089581E008958091A70180FF0CC03B
:102090006091010170E0759567957595679561157B
:1020A000710549F1862F089581FF06C060910101F5
:1020B00070E075956795F3CF6091010182FD0BC0CB
:1020C0009091A5019923A1F06091000180910101F7
:1020D000961738F0682F70E06038710500F38FE7CD
:1020E0000895899FC001112470E00E94DF29F4CF78
:1020F00061E070E0D7CF81E008958D3E31F40E9419
:10210000FA0F81958093AB0108958E3E19F40E94D9
:10211000FA0FF8CF8F3E31F40E94FA0F8195809329
:10212000AA010895803F19F40E94FA0FF8CF893F61
:1021300029F40E9444108093AC0108958A3F21F451
:102140000E9444108195F7CF8B3F31F40E944410D8
:1021500081958093AD0108958C3F19F40E9444103D
:10216000F8CF9FE0980F983070F4815F990B21E0D1
:1021700030E001C0220F8A95EAF78091A901822BF5
:102180008093A90108958D3F31F48091A70181606A
:102190008093A70108958E3F21F48091A70182606A
:1021A000F7CF8F3FB9F78091A7018460F1CF4091BD
:1021B000AA018D3E59F48091AB0187FF0DC01092AA
:1021C000AB0141110BC01092A60108C08E3E81F4F4
:1021D0008091AB0118169CF3442381F08091AC01EF
:1021E0009091AD01892B09F05AC01092A501089574
:1021F0008F3E49F447FFF0CF1092AA018091AB01C6
:102200008111ECCFE0CF803F19F41416ACF3E4CF8A
:102210009091AC01893F29F41916F4F61092AC01A3
:10222000DBCF8A3F19F497FFD7CFF8CF9091AD015C
:102230008B3F29F497FFD0CF1092AD01CDCF8C3FCB
:1022400019F41916CCF3C8CF9FE0980F983090F48A
:10225000815F990B21E030E0B90102C0660F771F62
:102260008A95E2F7CB0180959091A901892380930B
:10227000A901B2CF8D3F31F48091A7018E7F809369
:10228000A701AACF8E3F21F48091A7018D7FF7CFC0
:102290008F3F09F0A1CF8091A7018B7FF0CF0895E8
:1022A0008091230283FF7EC08BE499E00E940206A6
:1022B0008091A9011F928F9386E499E09F938F9359
:1022C0000E949B0684E499E00E9402068091AA0184
:1022D000282F082E000C330B3F938F9381E499E055
:1022E0009F938F930E949B068FE399E00E940206C2
:1022F0008091AB01282F082E000C330B3F938F9356
:102300008CE399E09F938F930E949B068AE399E068
:102310000E9402068091AC01282F082E000C330B7E
:102320003F938F9387E399E09F938F930E949B063F
:1023300085E399E00E9402068091AD01282F082EC6
:10234000000C330B3F938F9382E399E09F938F931D
:102350000E949B068FE299E00E9402068091A601EE
:102360001F928F938CE299E09F938F930E949B061C
:102370008AE299E00E9402068091A7011F928F9342
:1023800087E299E09F938F930E949B0684E299E0F5
:102390000E9402068DB79EB74C960FB6F8949EBF6A
:1023A0000FBE8DBF0E94AF219C019091AA01809128
:1023B000AB01982B21F03093A4012093A3019091BD
:1023C000AC018091AD01982B21F03093A2012093B4
:1023D000A10188EA91E00C946F15EF92FF920F93A0
:1023E0001F93CF93DF9300D000D000D0CDB7DEB7DE
:1023F00086E0E8EAF1E0DE01119601900D928A95FF
:10240000E1F7E090AA01F090AB010091AC011091CE
:10241000AD011092AA011092AB011092AC01109282
:10242000AD018E2D8F2991F08091A3019091A4018F
:102430000E94C721AC019091A601992309F43FC0E5
:10244000809106018417150608F447C0802F812B60
:1024500091F08091A1019091A2010E94C721AC014D
:102460009091A501992309F477C080910201841706
:10247000150608F47FC08091AA019091AB01892BC9
:102480009091AC01892B9091AD01892B11F00E94A4
:10249000501186E0FE013196A8EAB1E001900D925C
:1024A0008A95E1F726960FB6F894DEBF0FBECDBF32
:1024B000DF91CF911F910F91FF90EF9008952091A0
:1024C00007018AE0289F900111242417350708F09E
:1024D000BDCF9F5F9093A60102C09F3FD1F7EE2032
:1024E00059F00E94FA0F9FEF1E140CF491E0899F9F
:1024F000802D11248093AA01FF2059F00E94FA0F29
:102500009FEF1F140CF491E0899F802D112480937C
:10251000AB013091AA01332309F498CF2091AB018C
:10252000222309F493CF45EB3403C00111249923EE
:1025300059F09093AA0145EB240390011124332311
:1025400039F03093AB0182CF81E08093AA01F3CFC1
:1025500081E08093AB017ACF209103018AE0289F2C
:10256000900111242417350708F085CF9F5F9093C1
:10257000A50102C09F3FD1F7002359F00E944410EB
:102580009FEF10160CF491E0899F802D1124809309
:10259000AC01112359F00E9444109FEF11160CF466
:1025A00091E0899F802D11248093AD013091AC0181
:1025B000332309F460CF2091AD01222309F45BCFCE
:1025C00045EB3403C0011124992359F09093AC01D9
:1025D00045EB240390011124332339F03093AD01EE
:1025E0004ACF81E08093AC01F3CF81E08093AD01CD
:1025F00042CF86E0E8EAF1E0DF011D928A95E9F733
:102600001092A6011092A5011092A70108950F93B0
:102610001F93CF93DF93C42FD22FFC018281882395
:10262000C9F04093B0010E94AF219093AF01809315
:10263000AE0180E28C0F883008F050C0C77081E096
:1026400001C0880FCA95EAF7DF91CF911F910F91D2
:102650000C9483171091B001141335C08091AE0112
:102660009091AF010E94C721883C910560F5C0E2BE
:10267000CD0F1D17B9F080E2810F883040F417703C
:1026800081E001C0880F1A95EAF70E948A17C830C6
:1026900048F481E09D2F977001C0880F9A95EAF762
:1026A0000E948317802F0E947B17C830B8F4D77020
:1026B00081E001C0880FDA95EAF7DF91CF911F9191
:1026C0000F910C948A1780E28C0F883038F4C77011
:1026D00081E001C0880FCA95EAF7EFCFDF91CF9173
:1026E0001F910F9108950F939C01CB01243F4CE55E
:1026F000340759F1A8F4293DFCE53F0701F12A3DD3
:102700004CE53407D1F1283D3C4591F406E221EE39
:1027100041EE68ED7CE50E94071380E00F9108957B
:10272000263FFCE53F07E9F0B0F0273F3C45F9F0D4
:10273000FC018281882339F11092B001EFCF07E2CA
:1027400025EE45EE69ED7CE5E6CF06E221EE40EEB2
:1027500064EF7CE5E0CF07E225EE44EE65EF7CE533
:10276000DACF06E221EE42EE66EF7CE5D4CF07E257
:1027700025EE46EE67EF7CE5CECF08E221E045EEA0
:102780006AED7CE5C8CF81E0C9CFCF93DF93EC0140
:10279000FB018281882309F419C1C230FCE5DF07FF
:1027A000C0F1C6319CE5D90730F09E012B5F3C4556
:1027B0002930310570F50E944220909341028093A8
:1027C0004002C031ECE5DE0709F4CFC008F05BC081
:1027D000C8308CE5D80709F4B6C088F5C430ECE5FC
:1027E000DE0709F4A8C0C0F4C2308CE5D80709F4AC
:1027F0009CC0809140028260C330DC4509F498C0DF
:1028000080914002909141020E9450200E94FC1948
:1028100080E0DF91CF910895809140028061C630C1
:10282000ECE5DE0709F484C0809140028860C7307F
:10283000DC4508F47DC080914002806279C0CC30D4
:102840008CE5D80709F489C070F4809140028C604F
:10285000CA30ECE5DE0709F46BC008F478C080915B
:1028600040028E7F65C0CE308CE5D80709F479C070
:10287000809140028B7FCF30DC4508F459C08091B5
:1028800040028F7E55C0CC3FECE5DE0709F457C00F
:1028900030F5C3318CE5D80709F46FC078F4C13145
:1028A000ECE5DE0709F465C0C231DC4509F0A8CFCC
:1028B0000E94FC19809140028F773AC0C5318CE5A7
:1028C000D80709F462C008F476C0809141028160A3
:1028D000CB3FDC4509F094CF8093410291CFC115E5
:1028E000FDE5DF0709F44DC088F4809141028D7F3A
:1028F000CE3F9CE5D90781F3809141028E7FCF3F87
:10290000DC4550F3809141028360E6CFC230FDE5A3
:10291000DF0709F459C008F444C080E0C330DD4546
:1029200009F06ECF0E94D5206BCF8091400281606C
:102930008093400265CF809140028460F9CF8091FE
:1029400041028260C9CF809140028064F1CF0E9431
:10295000FC19809140028068EBCF809140028D7F0E
:10296000E7CF80914002877FE3CF809140028F7D47
:10297000DFCF809140028F7BDBCF80914002837F4D
:10298000D7CF809141028C7FA7CF8091400282FBFC
:10299000992790F921E0922790FB82F990FB83F927
:1029A000C7CF80914102982F909591708E7F892B8F
:1029B00090FB81F991CF0E94FC1990914002892FE0
:1029C00097FB87F98058B4CF81E0ACCF81E021CF6D
:1029D000CF93DF93EB0186319C4511F50E947A1F5E
:1029E0009A81992399F08A7A91E009F490E0909382
:1029F000B101811109C089E20E94551F0E94C61FC2
:102A000080E0DF91CF91089585E3F6CF8091B10109
:102A1000811104C089E20E945C1FF0CF85E3FBCFE7
:102A200081E0EFCF9093B7018093B6010895E091D4
:102A3000B601F091B701309721F00190F081E02DBF
:102A4000099480E00895EF92FF920F931F93CF9324
:102A5000DF938C01E091B601F091B7013097C1F19D
:102A60000280F381E02D09958091230282FF30C01E
:102A700080FF04C086E799E00E940206D0E0C0E033
:102A800080E7E82E89E0F82E8091230280FF0EC0B7
:102A9000F801EC0FFD1F80811F928F93FF92EF9240
:102AA0000E949B060F900F900F900F902196C830B8
:102AB000D10551F78091230280FF0AC08EE699E08C
:102AC000DF91CF911F910F91FF90EF900C94020630
:102AD000DF91CF911F910F91FF90EF900895E091BA
:102AE000B601F091B701309739F022E0DC012C9368
:102AF0000480F581E02D099408952091B40130916E
:102B0000B5012817390771F09093B5018093B4018E
:102B1000E091B601F091B701309721F00680F7817E
:102B2000E02D099408952091B2013091B301281746
:102B3000390771F09093B3018093B201E091B6012F
:102B4000F091B701309721F00084F185E02D0994D0
:102B500008950E94BB216093C2017093C3018093CA
:102B6000C4019093C5016093BE017093BF0180932F
:102B7000C0019093C101089585B7806885BF85B76E
:102B8000806885BF0895089508950C94C31508952D
:102B90000C94C7150E94BC1586E194E20E941E2287
:102BA0000E94C4150C94C51581E008950C94D415A9
:102BB000089508950E94A6210E94090A0E943C22BD
:102BC0000C94C815CF93C82F8091230282FF1EC09A
:102BD00080FF1CC08FE899E00E94020680912302CA
:102BE00080FF14C01F92CF938AE899E09F938F9340
:102BF0000E949B06809123020F900F900F900F90E0
:102C000080FF04C088E899E00E9402068C2FCF91D3
:102C10000C948107AF92BF92CF92DF92EF92FF9216
:102C20000F931F93CF93DF93CDB7DEB72A970FB6DD
:102C3000F894DEBF0FBECDBF0E94D8150E94D915F3
:102C40000E943E0A81110E94A91589EBA82E81E0FD
:102C5000B82E10E000E0C02E802F0E949E09E82EC2
:102C6000F501F1905F01F81609F44DC0809123023F
:102C700081FD0E94A4098F2D8E25D12CFF24F39471
:102C8000982F9F21D9F10E94D615882399F0DE82D2
:102C9000CF82EF2081E009F480E088870E94AF2195
:102CA0008160782F9A8789874E815F8168858A85C0
:102CB0000E94AB16F801E754FE4F8081F826F0829F
:102CC0000E94ED110E9417159091B801891791F19A
:102CD0000E9417158093B8012A960FB6F894DEBFAC
:102CE0000FBECDBFDF91CF911F910F91FF90EF905D
:102CF000DF90CF90BF90AF900C94E215D394FF0C6F
:102D0000F4E0DF12BDCF0F5F1F4F0530110509F052
:102D1000A2CF8FEF89838A831B820E94AF218160BB
:102D2000782F9D838C8349815A816B818D810E948C
:102D3000AB16C6CF2A960FB6F894DEBF0FBECDBF36
:102D4000DF91CF911F910F91FF90EF90DF90CF9087
:102D5000BF90AF900895DF92EF92FF920F931F9371
:102D6000CF93DF93CDB7DEB72B970FB6F894DEBFC6
:102D70000FBECDBF7A878B87F42E052F162FE72E37
:102D8000D82E61110E949A1F1E821D827E2DEC8218
:102D9000DD824F2D502F612F8D2D9E812B960FB6EA
:102DA000F894DEBF0FBECDBFDF91CF911F910F9181
:102DB000FF90EF90DF900C94721CFC018081918158
:102DC0000C94271FCF93C82F882309F44CC08CEF95
:102DD0008C0F813AC8F48C2F0E94B70E811143C02A
:102DE0006C2F80910801909109010E94EC208823AA
:102DF00029F08C2F0E945C1F0E94C61F8C2F0E94FE
:102E0000551FCF910C94C61F80E28C0F883048F478
:102E1000C77081E001C0880FCA95EAF70E947D1F44
:102E2000F0CFEBE5EC0FE33040F4F0E0E957FE4F74
:102E3000808190E0CF910C947D15E8E5EC0FE731AF
:102E400050F4F0E0EE0FFF1FE75AFE4F80819181B2
:102E5000CF910C949315CD3E30F08C2F0E947D10B5
:102E6000CF910C945011CF910895882361F19CEF7C
:102E7000980F913A20F40E945C1F0C94C61F90E2B8
:102E8000980F983050F4877091E001C0990F8A959F
:102E9000EAF7892F0E94831FF0CF9BE5980F9330AC
:102EA00020F490E080E00C947D1598E5980F973120
:102EB00020F490E080E00C9493158D3E20F00E9469
:102EC000D7100C94501108951F93CF93DF93182FB0
:102ED000EB010E94E216209731F4812FDF91CF9110
:102EE0001F910C9435178FE99FE00197F1F700C00F
:102EF00000002197F0CF70E060E0893311F460E5C5
:102F000070E00C946417882321F00E947D1F0C94BC
:102F1000C61F0895882321F00E94831F0C94C61FAA
:102F20000895BF92CF92DF92EF92FF920F931F937B
:102F3000CF93DF936C01D62FC72FFC01128105813F
:102F400002950F700E94731FE82E8823A1F0E12ED6
:102F5000112389F08C2F807F803429F080E28D0F3F
:102F6000E12C883040F082E00E9411200E94731F03
:102F700091E0E82EE926BC2EB2949FE0B922EB2D19
:102F8000F0E0EC5AF54D0C94F3290C2F0F70C07F34
:102F900011F00295007F1123A9F0002359F080E27F
:102FA0008D0F883010F0D11109C0802F0E947D1F35
:102FB0000E94C61F8D2F0E94E21614C0802F0E940F
:102FC0008D1FF6CF8D2F0E943517002359F080E218
:102FD0008D0F883010F0D1112CC0802F0E94831FDC
:102FE0000E94C61F2B2D2850330B2430310520F4AE
:102FF0000E9417150E948107EE2009F49EC10E94CD
:103000006F1F80FD9AC1F60112820E94691F0E9403
:10301000F61DC6010E94BE190E94691FDF91CF9163
:103020001F910F91FF90EF90DF90CF90BF900C9485
:10303000171E802F0E94931FD3CFFC2FFF70FF2EEF
:10304000C07FC03219F0F29480EFF822DD2369F0DE
:10305000D13049F1112391F1002351F1F60185811D
:1030600080FFA8CF8F70858323C0112381F00111C9
:1030700006C00E94AD1F8F290E948317B3CF013075
:10308000C1F70E94AD1F8F290E94B31FABCF011162
:1030900006C00E94BC1F8F2D0E948A17A3CF01304B
:1030A00009F4A0CFF6CF112329F0063008F09ACF0B
:1030B0008F2DE2CF053008F095CFEDCF002359F3E7
:1030C000D93349F4FFEF27EE33E0F1502040304090
:1030D000E1F700C000008D2F0E94351783CF8C2FA1
:1030E00086958695837069F0813009F07BCF8D2FAE
:1030F0009C2F9370111102C090E080E00E94931504
:1031000071CF8D2F9C2F9370111102C090E080E041
:103110000E947D1567CF8D2F112329F00E947D100D
:103120000E9450115FCF0E94D710FACF8C2F83706E
:1031300009F041C0111156CF4D2F42954695477069
:10314000440F440F0D2F0F7010E030E020E0042EEC
:1031500004C0000F111F221F331F0A94D2F760E032
:1031600070E0CB01D4FF0FC06FE070E080E090E032
:1031700004C0660F771F881F991F4A95D2F7609584
:10318000709580959095C695C695C370602B712BF0
:10319000822B932BC23049F058F4C13019F00E94B1
:1031A000A81D20CF0E94961D1DCF0E94BA1D1ACFC8
:1031B0000E94941D17CF8695112311F08C2F8170DA
:1031C000882309F40FCF4D2F429546954770440F41
:1031D000440F0D2F0F7010E030E020E0042E04C0EB
:1031E000000F111F221F331F0A94D2F760E070E016
:1031F000CB01D4FF0FC06FE070E080E090E004C02E
:10320000660F771F881F991F4A95D2F760957095B2
:1032100080959095C695C695C370602B712B822BB7
:10322000932BC23049F058F4C13019F00E946D1E42
:10323000D9CE0E945B1ED6CE0E947F1ED3CE0E94A6
:10324000D01DD0CECF70112329F08C2F0E94F61DF7
:103250008D2F12CF8D2F0E948A178C2F0E94171E40
:10326000C1CED23F89F160F4D03FC9F0D13F29F1FE
:10327000112309F442C001119DCE8C2F8F7121C002
:10328000D33F39F1D43FA1F7112369F1CF718C2FCE
:103290000E94F61D63E08C2F0E94FC1FA3CE112319
:1032A00041F0053008F09ECE8C2F8F710E943A1E9F
:1032B00099CE063008F096CEF7CF8C2F8F71112360
:1032C00069F20E94F61D8ECE8C2F8F711123C9F3E7
:1032D000C5CF112329F08C2F8F710E94E11D82CE62
:1032E0000E94DC1D7FCE81E00E941120023008F494
:1032F00079CE82E00E94112075CE002359F0D93397
:1033000009F0E9CE8FEF97EEE3E081509040E04086
:10331000E1F7DFCE8C2F8F71A1CF4C2F4F706D2F27
:10332000C6010E9489070E940C1D5CCE4C2F4F7075
:103330006D2FC6010E948C0755CEDF91CF911F9152
:103340000F91FF90EF90DF90CF90BF9008950F9373
:103350001F93CF93DF93EC01688179818A810E946A
:10336000311F8C010E94911E0E94931DB801CE0155
:10337000DF91CF911F910F910C949117CF93DF9311
:10338000EC018B819C81892B29F08881998189238B
:103390008F3F59F4DF91CF910895CE010E94A71974
:1033A000CE01DF91CF910C94E906CE010E94100767
:1033B0008111F3CF0E94731F882361F38A818823D0
:1033C00049F382E0DF91CF910C94112090E080E0EE
:1033D0000E947D1590E080E00E9493150E949A1F44
:1033E0000E94AA1F0E94C61F0E94F9120C9450113D
:1033F0000E94631F0C94E6190E948A1F0C94F8190E
:10340000E92FE295EF70E250EE3070F4F0E0EC5905
:10341000F54D0C94F329803F19F020F4883E20F4F8
:1034200081E00895843FE1F380E00895883EC0F391
:10343000813FD1F7F5CF93FB882780F908950E944B
:10344000271F0C94001ACF93DF9300D000D00F9267
:10345000CDB7DEB70F900F900F900F900F90DF91C8
:10346000CF910895CF93DF9300D000D000D0CDB797
:10347000DEB726960FB6F894DEBF0FBECDBFDF9144
:10348000CF9108951F93CF93DF93C091C70116E0AA
:103490008091C8018C1304C0DF91CF911F910895D2
:1034A000D0E01C9FF0011D9FF00D1124E753FE4F4B
:1034B0004081518162817381848195810E94321A99
:1034C0002196C770E5CF4091F9015091FA016091C2
:1034D000FB017091FC018091FD019091FE010C9423
:1034E000321A1F93CF93DF938091FE01807FA9F45E
:1034F0008091FB01882389F08091C701C091C801A8
:103500006091F9017091FA01A091FC01B091FD0167
:10351000D62FD72316E0C81304C0DF91CF911F9197
:10352000089590E0109711F0DF3F19F4019687702D
:10353000F2CF189F9001199F300D1124F901E75324
:10354000FE4F41814713F2CF40814613EFCF4281B6
:103550004111ECCF438154814A1B5B0B483C510520
:1035600028F78091FE018F7080618093FE01F90140
:10357000E253FE4F80818F708061808389EF91E0FC
:103580000E94BE19DF91CF911F910C94421AAF9205
:10359000BF92CF92DF92EF92FF920F931F93CF9340
:1035A000DF93CDB7DEB761970FB6F894DEBF0FBEDD
:1035B000CDBF8C0185E0F801DE011D9601900D92D2
:1035C0008A95E1F7F80140815181E28089EFC82EA8
:1035D00081E0D82E6091FC017091FD0161157105AB
:1035E00009F461C19091F9012091FA01892F822398
:1035F0008F3F09F458C1A380B480F090FB01F5011E
:10360000E61BF70BFF2009F4FCC08091FE01382F68
:10361000307FE83CF10508F0B2C0311179C0FE2CD2
:10362000251323C0941321C0E1101FC08F70806147
:103630008093FE010E94631AC6010E94BE19809108
:10364000FE01F80185838F2D61960FB6F894DEBFD9
:103650000FBECDBFDF91CF911F910F91FF90EF90E3
:10366000DF90CF90BF90AF900895AB2829F0842FC2
:1036700085238F3F09F033C180E0F82FF170DF2EF2
:1036800080FF3CC08091C7012091C80136E08213C1
:1036900015C04D875E878D859E850E94271F292F27
:1036A00022952F702230F0F0243018F59F70F1F041
:1036B000F8019581907FD1F4D12C1EC090E0389F05
:1036C000F001399FF00D1124E753FE4F618165131E
:1036D00006C06081641303C062816E110FC0019641
:1036E0008770D5CF9F7011F0882331F3805E8830CA
:1036F00018F3C8010E94BE19FD2CA5CFEE2009F4D5
:10370000A2CF8091FE0181608093FE01F12C9BCFBE
:10371000251306C0941304C0F801EE2009F48DC0EF
:103720004D875E878D859E850E941F1A882319F11B
:10373000EE2009F18091FE01803270F02091F901B4
:103740003091FA0138872F831986BB86AA868C8729
:10375000CE0107960E94BE1986E0F801A9EFB1E0FC
:1037600001900D928A95E1F70E94711A0E94631AE6
:10377000FF24F39468CFC8010E94BE19F9CF31111C
:1037800013C07A2DB98AA88A6E2D89890E94231ABE
:1037900089EF91E00E94BE1986E0F60111928A95A8
:1037A000E9F70E94631AB2CF25130FC094130DC01E
:1037B000E1100BC0F8018583C8010E94BE1986E0A4
:1037C000F60111928A95E9F73ECF4D875E878D8588
:1037D0009E850E941F1A882371F2EE2061F280916B
:1037E000FE01803208F4B8CF2091F9013091FA013E
:1037F0003A8329831B82BD82AC828E83CE010196DF
:10380000A9CFE83CF10508F041C0FE2CEE2009F4F8
:10381000B2CF25132AC0941328C08091FE0180FDE9
:103820001BC0982F907FC1F0F8018583903F31F045
:10383000982F907F905F8F70892B8583C8010E949D
:10384000BE1986E0F801A9EFB1E001900D928A95CA
:10385000E1F70E94631AF7CE86E0F801A9EFB1E024
:1038600001900D928A95E1F7EECE4D875E878D85AA
:103870009E850E941F1A81116FCF8091FE01816089
:103880008093FE01C8010E94BE19DDCE7A2DB98A4F
:10389000A88A6E2D89890E94231A86E0F60111926A
:1038A0008A95E9F7D6CFEE2009F465CF4D875E877C
:1038B0008D859E850E941F1AF82E882309F45BCF00
:1038C00086E0F801A9EFB1E001900D928A95E1F749
:1038D00089EF91E00E94DD160E94711ABACF81E053
:1038E0008E25CBCE1F93CF93DF93CDB7DEB72C972A
:1038F0000FB6F894DEBF0FBECDBF4F8358876987E0
:103900007A878B879C87CE0107960E94C71A8823E7
:1039100069F08A859B85892B39F04F815885842FE2
:1039200085238F3F09F071C016E05FC086E0FE017D
:103930003796DE01119601900D928A95E1F78A85FE
:103940009B85892B89F38F81988589238F3F61F32C
:103950002091C80130E0C9010196877099274091F4
:10396000C7014817190671F40E94FC191092C8018A
:103970001092C70186E0E9EFF1E0DF011D928A9520
:10398000E9F7D2CF96E0929FD001939FB00D11241A
:10399000A753BE4FFE01319601900D929A95E1F723
:1039A0008093C8010E94421ABFCF819FC001112499
:1039B00087539E4F0E94C71A8823E9F0E091C70100
:1039C0001E9FF0011124E753FE4F40815181628117
:1039D0007381848195810E94321A8091C70190E0A1
:1039E0000196877099278093C7018091C7019091B4
:1039F000C8018913DACF2C960FB6F894DEBF0FBE3C
:103A0000CDBFDF91CF911F91089569857A858B8510
:103A10009C850E94321A88CFEF92FF920F931F93DA
:103A2000CF93DF938C01892B81F0F12CEE24E3946A
:103A3000E8012196F8018491843770F4843008F00D
:103A40005FC08130B1F08230A1F1DF91CF911F9141
:103A50000F91FF90EF900895853709F44CC008F45A
:103A60003DC09CE7980F903780F78F770E943517FD
:103A700049C00E5F1F4FFE01849190E2980F98306D
:103A800060F48770FE2D01C0FF0F8A95EAF78F2F33
:103A90000E949D1F0E94C61F02C00E94E2168F2D29
:103AA000815030F2EFE9FFE03197F1F700C00000FC
:103AB000F7CF0E5F1F4FFE01849190E2980F983070
:103AC00050F48770FE2D01C0FF0F8A95EAF78F2F03
:103AD0000E94A31FDFCF0E943517E1CF0E5F1F4F5B
:103AE000FE01C491C150D8F28FE99FE00197F1F730
:103AF00000C00000F7CF0E5F1F4FFE01F490CFCF44
:103B00000E94E2168E01CBCF08950C94841D0E9472
:103B1000851D609312027093130280931402909398
:103B200015020C94E61908950C94871D0F931F93AA
:103B3000009112021091130220911402309115028B
:103B4000602B712B822B932B1F910F910C94871D4F
:103B50000F931F93009112021091130220911402EF
:103B60003091150260237123822393231F910F91BB
:103B70000C94871D0F931F93009112021091130252
:103B80002091140230911502602771278227932714
:103B90001F910F910C94871D0C94841D0C94CC1DC7
:103BA0000E94CE1D60930E0270930F02809310024C
:103BB000909311020C94E61960E070E0CB010C9434
:103BC000D01D0F931F9341E050E060E070E08A0148
:103BD0009B0104C0000F111F221F331F8A95D2F7CB
:103BE000C901B8011F910F910C94D01D0F931F9321
:103BF00041E050E060E070E004C0440F551F661FD4
:103C0000771F8A95D2F780910E0290910F02A091B2
:103C10001002B09111028A019B01082B192B2A2B4B
:103C20003B2BC901B8011F910F910C94D01D0F932C
:103C30001F9341E050E060E070E004C0440F551F66
:103C4000661F771F8A95D2F7CB01BA0160957095F0
:103C50008095909500910E0210910F022091100214
:103C60003091110260237123822393231F910F91BE
:103C70000C94D01D0F931F9341E050E060E070E082
:103C800004C0440F551F661F771F8A95D2F7809195
:103C90000E0290910F02A0911002B09111028A01C0
:103CA0009B01082719272A273B27C901B8011F9123
:103CB0000F910C94D01D0F931F9300910E02109141
:103CC0000F022091100230911102602B712B822B78
:103CD000932B1F910F910C94D01D0F931F93009164
:103CE0000E0210910F0220911002309111026023F8
:103CF0007123822393231F910F910C94D01D0F9356
:103D00001F9300910E0210910F022091100230912A
:103D1000110260277127822793271F910F910C941E
:103D2000D01D0895990F990F890F982F977041E032
:103D300001C0440F9A95EAF786958695869595E099
:103D4000899FF0011124E150FE4F30E020E070E047
:103D50005191DF011197CB01022E02C096958795F4
:103D60000A94E2F7817081958527842385278C93B7
:103D70002F5F3F4F2530310559F70895990F990F5F
:103D8000890F982F977086958695869525E0829F56
:103D9000F0011124E150FE4F50E040E080E021911D
:103DA00030E0092E02C0369527950A94E2F721707B
:103DB0003327042E01C0220F0A94EAF7822B4F5FAB
:103DC0005F4F4530510559F70895BF92CF92DF926A
:103DD000EF92FF920F931F93CF93DF938C01C090CC
:103DE0000E02D0900F02E0901002F090110280912C
:103DF000120290911302A0911402B0911502C82AE8
:103E0000D92AEA2AFB2ACFE1D0E0BC2ED701C6018D
:103E10000C2E04C0B695A795979587950A94D2F76E
:103E200080FD0EC0219788F7B12C8B2DDF91CF91AB
:103E30001F910F91FF90EF90DF90CF90BF9008956A
:103E4000B8018C2F0E94A907019761F3EECFCF93A1
:103E5000DF93EC010E94E51EBE01DF91CF910C942F
:103E6000A9071F93CF93DF93EB019091C60199238C
:103E700031F0CB01DF91CF911F910C94271F882344
:103E800079F0CB010E94E51E182F682FCE010E9409
:103E9000921EBE01812FDF91CF911F910C94A90733
:103EA000CB010E94BE1E182FF4CF682F809108010D
:103EB000909109010C942221682F80910801909122
:103EC00009010C94242180910801909109010C941E
:103ED0002621809116028595859585950895809176
:103EE00016028770089590911602977081E009F488
:103EF00080E0089580912202089590912202892BFA
:103F000080932202089580959091220298239093A5
:103F10002202089510922202089590912102892B85
:103F20008093210208958095909121029823909387
:103F30002102089510922102089590912002892B68
:103F40008093200208958095909120029823909369
:103F5000200208951092200208958091170208957A
:103F600008950C94B01F90911702981721F0809338
:103F700017020C94B11F089580911702882329F02D
:103F80001092170280E00C94B11F0895E09108018F
:103F9000F0910901809122028083E0910801F09163
:103FA0000901808190912102892B8083E091080191
:103FB000F0910901808190912002892B808390915A
:103FC0001702992381F0E0910801F09109018081A5
:103FD000892B808380910801909109010E94DA2049
:103FE00081110E94BC1F80910801909109010C94DD
:103FF000231508950C94F91F98E0899F90011124CE
:10400000622B609316020E94F61D80911602859520
:10401000859585950C94FA1F1092160280E00C94F9
:10402000FA1F909116028095892380931602282FFB
:10403000277071F4282F082E000C330B92171306EB
:1040400039F08595859585950E94171E0C940C2056
:1040500008956FEF7FEF90E080E00C943C2A90E0B1
:1040600080E00E94182A21E08B3E9E4F09F020E05C
:10407000822F089582E090E00C94102A83E090E073
:104080000C94102ACF9384E090E00E94102AC82F4D
:1040900081E290E00E94102A982F8C2FCF910895F2
:1040A000CF93C92F682F84E090E00E941E2A6C2FC6
:1040B00081E290E0CF910C941E2AAB01BC018FE00D
:1040C00090E00C94302AAB01BC0183E190E00C94A9
:1040D000302A60E070E0CB010C94632060E070E077
:1040E000CB010E945D200C9469206BEE7EEF90E086
:1040F00080E00E943C2A60E082E090E00E941E2A5C
:1041000060E083E090E00E941E2A1092120210925A
:104110001302109214021092150260E084E090E005
:104120000E941E2A60E081E290E00E941E2A60E068
:1041300085E090E00E941E2A60E086E090E00E9408
:104140001E2A6FEF87E090E00E941E2A40E050E0B8
:10415000BA0188E090E00E94302A60E08DE090E0B3
:104160000E941E2A40E050E0BA0188E190E00E94DF
:10417000302A60E087E190E00E941E2A40E050E093
:10418000BA018CE190E00E94302A60E080E290E089
:104190000E941E2A40E050E0BA0188E190E00E94AF
:1041A000302A0C946E200C947520682F8EE090E0DD
:1041B0000C941E2A9C012E5F3F4FAC01485F5F4F5D
:1041C00080E02417350709F40895F90191919F01C2
:1041D0009923B9F38F5FF5CF662349F0FC0132963E
:1041E00008962191261729F0E817F907D1F780E002
:1041F000089581E008959C01FC0132969FEF80E0D4
:104200004191461751F09F3F19F4411101C0982F79
:104210008F5F8630A9F79F3F09F40895290F311D5C
:1042200097FD3A95F90162830895FC01329608964C
:104230002191261303C0DF0111971C92E817F9079B
:10424000B9F708950C94FB200C941521029626E0F2
:10425000FC0111922A95E9F70895089508950C94A8
:104260002E2180914602843049F10E942F2180E066
:104270000E9481071092240288E190E020E40FB6AA
:10428000F894A895809360000FBE2093600083B7D8
:10429000817F846083BF83B7816083BF7894889572
:1042A00083B78E7F83BF0FB6F894A8958091600086
:1042B000886180936000109260000FBE0895089599
:1042C000CF930E942D210E943E0A0E945F21C0E0F0
:1042D0008C2F0E949E09811105C0CF5FC530C1F7A8
:1042E000CF91089581E0FCCF08950C9474210E9431
:1042F000FC190E9417150E9481070C9475211F92CA
:104300001FB61F9211248F939F93AF93BF938091F9
:104310002402811113C080913C0290913D02A09132
:104320003E02B0913F024196A11DB11D80933C0217
:1043300090933D02A0933E02B0933F02BF91AF9194
:104340009F918F911F901FBE1F90189582E084BD92
:1043500093E095BD9AEF97BD80936E0008952FB7B7
:10436000F89480913C0290913D02A0913E02B09160
:104370003F022FBF08952FB7F89460913C027091CF
:104380003D0280913E0290913F022FBF08959C0113
:104390004FB7F89480913C0290913D02A0913E026B
:1043A000B0913F024FBF821B930B089578941F92E8
:1043B0001FB61F9211248F939F93AF93BF93809149
:1043C0003C0290913D02A0913E02B0913F020196C5
:1043D000A11DB11D80933C0290933D02A0933E022B
:1043E000B0933F02BF91AF919F918F911F901FBEDD
:1043F0001F90189581E08093E00080E28093D800C0
:104400001092C9008FE19EE40197F1F700C000000F
:1044100087E090EBDC0180934F0290935002A093D1
:104420005102B093520288E19CE00FB6F894A8952F
:10443000809360000FBE90936000FFCF90939B012C
:1044400080939A0108950C9429200E943E0A2FEF30
:1044500086E791E0215080409040E1F700C00000E5
:104460000E943E0A80E00E949E0980FF04C00E94D4
:1044700023220C94FA2108950E942F20811102C05A
:104480000E94D3200E943A20809323020E9442205F
:1044900090934102809340020E943E20682F70E07A
:1044A00090E080E00E94941D60910E0270910F02D6
:1044B00080911002909111020C94CE1D80913002D7
:1044C0000895CF93DF9300D00F92CDB7DEB79091D0
:1044D0004602943019F589837B836A8382E0809356
:1044E000E9008FEF9091E800815095FD06C095EDB1
:1044F0009A95F1F700008111F5CF8091E80085FFD2
:104500000DC050E040E063E070E0CE0101960E94F3
:104510003A258091E8008E778093E8000F900F9005
:104520000F90DF91CF910895BC0184E00C9461223B
:10453000BC0183E00C9461229C0182E08093E9003D
:104540009FEF8091E800915085FD06C085ED8A952A
:10455000F1F700009111F5CF8091E80085FF0CC0C4
:1045600050E040E066E070E0C9010E943A25809189
:10457000E8008E778093E8000895CF93DF93EC01F5
:1045800081E08093E9008FEF9091E800815095FDE4
:1045900006C095ED9A95F1F700008111F5CF809155
:1045A000E80085FF14C050E040E068E070E0CE0114
:1045B0000E943A258091E8008E778093E80088E099
:1045C000FE01A8E2B2E001900D928A95E1F7DF9139
:1045D000CF91089587EC99E00E94020680914502F0
:1045E000811109C00E94C8260E942A278091E200FA
:1045F00084608093E200089583EC99E00E940206B3
:104600001092450208958FEB99E00C9402068BEB13
:1046100099E00C94020687EB99E00C940206209135
:1046200026022F5F822F62E30E94D329992319F07B
:104630002093260208951092260280912702882353
:10464000F1F0809146028430C1F49091E9009F70AE
:104650002091EC00822F817020FD80E8892B93E06F
:104660009093E9009091EB0090FF04C09091EE00D0
:1046700097FD08C08F708093E9001092270208957B
:104680001092F1009091E80095FDFACF9091E8002A
:1046900090FFF0CF9091E8009E779093E800EACFEA
:1046A00042E061EC81E00E94442642E261EC82E05B
:1046B0000E94442642E261EC83E00C9444268091FF
:1046C0004802833009F45FC030F48130C1F1823098
:1046D00009F49BC008958A3009F487C08B3009F42F
:1046E0006DC0893009F04EC080914702813209F0D7
:1046F00049C080914B0290914C02029708F042C051
:104700008091E800877F8093E8008091E80082FF35
:1047100035C08091F2009091F300029729F48091C6
:10472000F1008B7F813021F48091F1008093300281
:104730008091E8008B778093E8000C947826809134
:104740004702813AF9F48091E800877F8093E8007E
:1047500080914B0290914C02892B61F468E088E2D1
:1047600092E070E00E9489258091E8008B77809329
:10477000E800089560E090E080E0F3CF8091460289
:104780008111C3CF089580914702813AD9F7809172
:104790004B0290914C02892BA9F78091E800877F0A
:1047A0008093E8008091E80080FFFCCF80911401A5
:1047B0008093F1008091E8008E77BDCF8091470211
:1047C000813201F780914B0290914C02892BD1F6F6
:1047D0008091E800877F8093E8000E94782680918E
:1047E0004902809314010C94FC1980914702813294
:1047F00049F68091E800877F8093E8000E94782640
:1048000080914A0280933102089580914702813A53
:1048100009F0B8CF8091E800877F8093E80080910D
:10482000E80080FFFCCF80913102C2CF9FB7F8949F
:10483000109227029FBF90914602943009F048C021
:104840002091E9002F703091EC00932F917030FD92
:1048500090E8922B23E02093E9002091EB0020FFC9
:1048600034C02091EE0027FF30C020912502222382
:1048700021F02091E80025FF28C01092250226E0B3
:104880003091E80035FF14C08093F1008091E8007A
:1048900085FD27C08091E80080FFFCCF8091E80073
:1048A0008E778093E8009F709093E90080E00895F0
:1048B00030914602343049F43091EB0035FD05C0AB
:1048C000215041F481E0809325029F709093E9008C
:1048D0008FEF0895EFE9FFE03197F1F700C0000096
:1048E000CFCF8FB7F89421E0209327028FBFDBCF83
:1048F00084B7877F84BF0FB6F894A8958091600035
:10490000886180936000109260000FBE80E890E0A4
:104910000FB6F89480936100909361000FBE0E94DF
:10492000CA150E94C8260E942A278091E20084604E
:104930008093E20078940E94B8290E94DA158AE0F8
:1049400091E00E94121586EA99E00E940206809189
:104950004602853051F482EA99E00E940206809175
:104960004602853049F00E9477210E940A160E9473
:10497000D8150E94D915EBCF0E94312180914402B5
:10498000882369F30E946021882349F30E9424252B
:104990000E94FC19E4CF0C94CD24292F3327233017
:1049A000310521F168F42130310509F443C022308A
:1049B000310509F444C090E080E030E020E026C0FA
:1049C0002132310551F122323105A9F763307105E9
:1049D00090F7FB01EE0FFF1FE357FE4F208131815F
:1049E00066577E4FFB01808190E010C0992781308F
:1049F000910581F0009729F00297E9F6EBECF9E0D8
:104A000002C0E7E0FAE0849190E09F01FA0131836F
:104A100020830895E7EEF9E0F6CF6330710558F68C
:104A2000660F771FFB01ED56FE4F2081318189E033
:104A300090E0ECCF82E190E026E63AE0E7CF8BE52C
:104A400090E02BE03AE0E2CF84E189BD86E189BDC8
:104A500009B400FEFDCF8091D8008F7D8093D800EF
:104A60008091E00082608093E0008091E00081FD11
:104A7000FCCF0895AF92BF92CF92DF92FF920F9337
:104A80001F93CF93DF936C01EB018A010E9497265D
:104A9000F82E811123C00115110539F0F80180812C
:104AA0009181C81BD90BC80ED91EB12CA12C2097FF
:104AB000A9F08091E80085FD22C08091E8008E7702
:104AC0008093E80001151105A1F0F8018081918122
:104AD000A80EB91EB182A08285E0F82E8F2DDF913D
:104AE000CF911F910F91FF90DF90CF90BF90AF902B
:104AF00008950E9497268823D1F2F82EEFCFF60171
:104B000081916F018093F1002197FFEFAF1ABF0AE7
:104B1000CECFFC0180914D0290914E0286179707EF
:104B2000A0F06115710529F49091E8009E779093AB
:104B3000E80090E06115710551F4911108C0809171
:104B4000E80082FF33C080E00895BC01F2CF80917D
:104B500046028823B9F18530B9F18091E80083FDE0
:104B60002FC08091E80082FDEACF8091E80080FFAD
:104B7000E1CF2091F2003091F3006115710519F039
:104B80002830310558F091E02830310509F090E0E7
:104B90002091E8002E772093E800CCCF819180937C
:104BA000F100615071092F5F3F4FE7CF80914602BE
:104BB000882341F0853041F08091E80083FFBFCF2A
:104BC00081E0089582E0089583E00895FC018091DA
:104BD0004D0290914E0286179707A0F0611571055E
:104BE00029F48091E8008E778093E80090E06115C9
:104BF000710551F4911108C08091E80082FF34C022
:104C000080E00895BC01F2CF809146028823C1F173
:104C10008530C1F18091E80083FD30C08091E800CB
:104C200082FDEACF8091E80080FFE1CF2091F20081
:104C30003091F3006115710519F02830310558F0F5
:104C400091E02830310509F090E08091E8008E77FE
:104C50008093E800CCCF84918093F100319661502D
:104C600071092F5F3F4FE6CF80914602882341F0C4
:104C7000853041F08091E80083FFBECF81E0089548
:104C800082E0089583E00895982F973028F08F7080
:104C90008093E90081E008959093E900242F762F16
:104CA00050E0981731F07091EC002091ED00509198
:104CB000F00021FD02C09F5FE8CF3091EB003E7F06
:104CC0003093EB003091ED003D7F3093ED0030915B
:104CD000EB0031603093EB007093EC002093ED001B
:104CE0005093F0002091EE0027FDE5CF80E008957D
:104CF0008091470287FF13C08091E80082FF06C0C1
:104D00008091E8008B778093E80004C08091460290
:104D10008111F2CF0895809146028823D9F38091C2
:104D2000E80080FFF8CF8091E8008E77ECCF2091EB
:104D3000E4003091E50095E6A9012091EC00822F76
:104D4000817020FF06C08091E80080FF06C080E0EF
:104D500008952091E80022FD1AC080914602882320
:104D600089F0853089F08091EB0085FD0FC020919E
:104D7000E4003091E50042175307F9F29150E1F653
:104D800084E0089582E0089583E0089581E0089525
:104D90000E9439270E944127E0EEF0E08081816087
:104DA0008083E8EDF0E080818F77808319BCA7EDE8
:104DB000B0E08C918E7F8C9380818F7E8083109267
:104DC000450208950F931F93CF93DF930E943927D5
:104DD0000E944127C8EDD0E088818F778883888141
:104DE0008068888388818F7D8883E7EDF0E080810B
:104DF0008068808319BC1092460210924202109281
:104E000044021092430200EE10E0F80180818B7F93
:104E1000808388818160888342E060E080E00E9436
:104E20004426E1EEF0E080818E7F8083E2EEF0E0C8
:104E3000808181608083808188608083F8018081A7
:104E40008E7F8083888180618883DF91CF911F91DD
:104E50000F910895E8EDF0E080818F7E8083E7ED8B
:104E6000F0E080818160808381E0809345020C9432
:104E7000E226E8EDF0E080818C7F80831092E200F2
:104E800008951092DA001092E10008951F920F9297
:104E90000FB60F9211240BB60F922F933F934F939F
:104EA0005F936F937F938F939F93AF93BF93EF9392
:104EB000FF938091E10082FF0BC08091E20082FFAE
:104EC00007C08091E1008B7F8093E1000E940F2357
:104ED0008091DA0080FF19C08091D80080FF15C052
:104EE0008091DA008E7F8093DA008091D90080FF74
:104EF00098C084E189BD86E189BD09B400FEFDCF7B
:104F000081E0809346020E94EA228091E10080FFC6
:104F100019C08091E20080FF15C08091E2008E7F71
:104F20008093E2008091E20080618093E2008091B2
:104F3000D80080628093D80019BC85E08093460237
:104F40000E9407238091E10084FF2BC08091E20042
:104F500084FF27C084E189BD86E189BD89B5982F8A
:104F6000917080FFFBCF8091D8008F7D8093D80017
:104F70008091E1008F7E8093E1008091E2008F7E3E
:104F80008093E2008091E20081608093E200809152
:104F90004202882309F44BC084E0809346020E94B9
:104FA0000B238091E10083FF29C08091E20083FF01
:104FB00025C08091E100877F8093E10082E08093AB
:104FC0004602109242028091E1008E7F8093E100C0
:104FD0008091E2008E7F8093E2008091E200806108
:104FE0008093E20042E060E080E00E9444268091ED
:104FF000F00088608093F0000E940323FF91EF91FE
:10500000BF91AF919F918F917F916F915F914F91E0
:105010003F912F910F900BBE0F900FBE0F901F90DE
:10502000189519BC109246020E94FC226ECF809106
:10503000E30087FD93E090934602B1CF1F920F9259
:105040000FB60F9211240BB60F922F933F934F93ED
:105050005F936F937F938F939F93AF93BF93CF9300
:10506000DF93EF93FF93D091E900DF708091EC0024
:10507000C82FC17080FDC0E81092E9008091F00057
:10508000877F8093F00078940E9466281092E90050
:105090008091F00088608093F000CD2BCF70C0939A
:1050A000E900FF91EF91DF91CF91BF91AF919F9177
:1050B0008F917F916F915F914F913F912F910F90C1
:1050C0000BBE0F900FBE0F901F9018951F93CF939C
:1050D000DF93CDB7DEB7AA970FB6F894DEBF0FBE49
:1050E000CDBF87E492E02091F100FC012193CF0134
:1050F000F2E08F349F07B9F70E945F238091E800A8
:1051000083FF1EC180914702909148029A3008F0B7
:1051100017C1E92FF0E0EE58F54D0C94F3298038D3
:1051200099F0823809F00CC180914B028F70873062
:1051300008F006C18093E9008091EB0085FB882789
:1051400080F91092E90006C08091430290914402D8
:10515000911182609091E800977F9093E80080938E
:10516000F1001092F1008091E8008E77E5C088236D
:1051700009F4D3C0823009F0E3C080914902811163
:10518000D6C080914B028F702FEF280F263008F089
:10519000D7C08093E9002091EB0020FFC8C0933076
:1051A00031F48091EB0080628093EB00C0C090915D
:1051B000EB0090619093EB0021E030E001C0220F02
:1051C0008A95EAF72093EA001092EA008091EB00BA
:1051D0008860EACF8111B4C0109149021F77809195
:1051E000E3008078812B8093E3008091E800877F43
:1051F0008093E8000E9478268091E80080FFFCCF31
:105200008091E30080688093E30082E0111183E0E5
:105210008093460295C08058823008F091C08091FA
:10522000490290914A028C3D23E09207A1F583E068
:105230008A838AE289834FB7F894DE01139620E0CF
:105240003EE051E2E32FF0E050935700E49120FF5D
:1052500003C0E295EF703F5FEF708E2F90E0EA3071
:10526000C0F0C7968D939D932F5F243159F74FBFA0
:105270008091E800877F8093E8006AE270E0CE01C9
:1052800001960E9489258091E8008B778093E80041
:1052900057C0C096E7CF60914B0270914C02AE01AF
:1052A0004F5F5F4F0E94CB24BC01892B09F448C09B
:1052B0009091E800977F9093E80089819A810E94FD
:1052C000E625E1CF8038E1F58091E800877F809383
:1052D000E800809142028093F10045CF811130C0F7
:1052E00090914902923060F58091E800877F809329
:1052F000E800909342020E9478268091420288231F
:1053000011F084E005C08091E30087FDFACF81E0D1
:10531000809346020E94502313C08091490281303D
:1053200079F481E0933009F080E080934402109298
:10533000E9008091E800877F8093E8000E9478264A
:105340008091E80083FF0AC08091E800877F809306
:10535000E8008091EB0080628093EB00AA960FB684
:10536000F894DEBF0FBECDBFDF91CF911F9108959E
:10537000CF93809146028823A1F0C091E900CF70BD
:105380009091EC00892F817090FD80E8C82B1092DD
:10539000E9008091E80083FD0E946628CF70C093E9
:1053A000E900CF910895991B79E004C0991F9617E1
:1053B00008F0961B881F7A95C9F78095089597FB8A
:1053C000072E16F4009407D077FD09D00E94FC291F
:1053D00007FC05D03EF4909581959F4F08957095F8
:1053E00061957F4F0895EE0FFF1F0024001C0BBE38
:1053F0000790F691E02D0994AA1BBB1B51E107C051
:10540000AA1FBB1FA617B70710F0A61BB70B881F54
:10541000991F5A95A9F780959095BC01CD010895E3
:10542000F999FECF92BD81BDF89A992780B508956C
:10543000A8E1B0E042E050E00C94442A262FF9990C
:10544000FECF92BD81BDF89A019700B4021639F0E3
:105450001FBA20BD0FB6F894FA9AF99A0FBE0895B4
:105460000396272F0E941F2A0E941E2A252F0E9482
:105470001F2A242F0C941F2A0196272F0E941F2ACF
:105480000C941E2ADC01CB01FC01F999FECF06C069
:10549000F2BDE1BDF89A319600B40D9241505040F2
:1054A000B8F70895F894FFCFC517C5171D181D1834
:1054B0006F188B18F217F217961822193119311933
:1054C0008D19F217F21796190B1A0B1A141A141ACF
:1054D000161A141A141A141A0B1A0B1A1B1A141A65
:1054E000141A1B1A8F28B728A029B728A029EA2840
:0854F0000B29A02962296E2995
:1054F8002808641E140A321E18025E22BD229C224D
:105508009822942201E200E900EA00B500B600B74B
:1055180000CD008301CC008A01920194012102236D
:105528000224022502260227022A02B300B4006FD1
:10553800007000818283606162639091929394010C
:10554800020304050607080900E200E900EA00B5BD
:1055580000B600B700CD008301CC008A0192019407
:10556800012102230224022502260227022A02B36D
:1055780000B4006F007000818283407B22150B9A73
:0A5588000A780A1D0A360A4F0A00CD
:00000001FF
